:020000040000FA
:060000000A128A11EC2F28
:10000C00F30083120313081173080A168A153F2391
:10001C000A128A1188150630F2003030F100F10B0B
:10002C001528F20B15280000831203138811080001
:10003C000310530D540DD5005508DB005B08031D50
:10004C0030280030D4000030D3000030D200003013
:10005C00D10008005108D5005208D6005308D7002B
:10006C005408D8001F300310D80CD70CD60CD50C64
:10007C00FF3E031D39285508D9005908DA00D3175B
:10008C00FF30D105FF30D205FF30D3050030D40549
:10009C009630DB02DB1F67285B08803A973E031C17
:1000AC00272801300310D40CD30CD20CD10CFF3EFA
:1000BC00031D58280130D5005508DB0703197A2891
:1000CC00572820305B02031827285B0803197A286D
:1000DC000130D5000310D10DD20DD30DD40DD50B9D
:1000EC0070280130DB026B285A0803190800D1096B
:1000FC00D209D309D409D10A0319D20A0319D30A94
:10010C000319D40A080055088039DA005A08E200AD
:10011C005508DA005A07DB005B08E400D41B6414B2
:10012C0064080319A728640A031DA4280030D5000D
:10013C000030D4000030D3000030D200D417D501E9
:10014C00AF280030D5000030D4000030D300003090
:10015C00D20059088039DA005A08E30063086206B5
:10016C00031D62175908DA005A07DB005B08E3002D
:10017C00D81B631463080319D128630A031DCE2806
:10018C000030D9000030D8000030D7000030D60045
:10019C00D817D901D9280030D9000030D800003048
:1001AC00D7000030D6006408630203181F29621FB1
:1001BC00E3288030DA005A08E2066408DA005A08AC
:1001CC00E5006308DA005A08E4006508DA005A080A
:1001DC00E3005208DA005A08E5005608DA005A081B
:1001EC00D2006508DA005A08D6005308DA005A081B
:1001FC00E5005708DA005A08D3006508DA005A08F7
:10020C00D7005408DA005A08E5005808DA005A08F2
:10021C00D4006508DA005A08D8005508DA005A08E4
:10022C00E5005908DA005A08D5006508DA005A08C2
:10023C00D900E5016308DA00DB015B08DD00640826
:10024C005A02DC00031CDD035D08803AFF0080309D
:10025C007F02031D33291A305C02031C6C298312A4
:10026C000313550854045304520403193F29013055
:10027C0040290030DA005A08E5000030D500003083
:10028C00D4000030D3000030D2006308DA005A08E2
:10029C00E4007229651C5B296508DA0003105A0C0E
:1002AC000138DB005B08E5005D290310E50C5218F2
:1002BC00E5170130DA00550DD50CD40CD30CD20C4B
:1002CC00DA0B61290130DA005A08E40783120313B0
:1002DC0063086402031C5029621BB3296408031DC4
:1002EC0080290030D5000030D4000030D30000301D
:1002FC00D20008005608D207570803110318013E14
:10030C00031DD307580803110318013E031DD4071E
:10031C00590803110318013E031DD507551C552A16
:10032C00651CA1296508DA0003105A0C0138DB00A2
:10033C005B08E500A3290310E50C5218E517013002
:10034C00DA00550DD50CD40CD30CD20CDA0BA72932
:10035C000130DA005A08E407552A5508803AFF00A4
:10036C005908803A7F02031DC52958085402031D01
:10037C00C52957085302031DC529560852020318F4
:10038C001D2AFF30DA00FF30DB00FF30DC00FF30CD
:10039C00DD005608DE005708DF005808E000590859
:1003AC00E1005208DE025308031C530FDE29DF293B
:1003BC00DF025408031C540FE429E529E002550818
:1003CC00031C550FEA29EB29E1025E08DA075F08E6
:1003DC0003185F0FF229F329DB0760080318600F7D
:1003EC00F829F929DC0761080318610ADD075D08A3
:1003FC00D5005C08D4005B08D3005A08D2008030CA
:10040C00DA005A08E206E509E50A6508031D2B2AFD
:10041C000130D207003003180130D3070030031825
:10042C000130D407003003180130D5072B2A5608A9
:10043C00D2025708031C570FD3025808031C580F3D
:10044C00D4025908031C590FD502550854045304FF
:10045C005204031D532A6508031D532A0030D5008E
:10046C000030D4000030D3000030D200080001303E
:10047C00DA000310D20DD30DD40DD50DDA0B3F2AB3
:10048C00E51B5214651C4C2A03144D2A0310E50D70
:10049C0064080319532A0130E402D41F3D2AE301F6
:1004AC00E51F602A65087F39031952185E2A602AF5
:1004BC00E301E30A63080319932A0130D2070030E1
:1004CC0003180130D307003003180130D407003073
:1004DC0003180130D507551C932A5208DA0053082B
:1004EC00DB005408DC005508DD000130DE005D0D3A
:1004FC00DD0CDC0CDB0CDA0CDE0B7D2A5D08D50088
:10050C005C08D4005B08D3005A08D200640A0319B3
:10051C00932A0130DA005A08E407640A031D6408C0
:10052C00031DA32A0030D5000030D4000030D300C6
:10053C000030D20064080319E201641CA72AD41706
:10054C00AB2A7F30DA005A08D4056408DA000310AD
:10055C005A0CDB005B08D500E21F0800D517080019
:10056C00BB00A130A5002508AE000130A007FF306C
:10057C00200784000A128A150A200A128A11A50083
:10058C002508C20042080319E72F2530420603193B
:10059C00D12A4208DC2FAF01B001200884000A12D6
:1005AC008A150A200A128A112E3A031D1B2B3017AA
:1005BC000130A5002508A007BC01BD01200884005E
:1005CC000A128A150A200A128A110A168A15312370
:1005DC000A128A11031C212B0A30F0000030F100A2
:1005EC003D08F3003C08F2000A168A15C5230A12CE
:1005FC008A117108BD007008BC00200884000A1222
:10060C008A150A200A128A11D03EA500FF30031861
:10061C000030A6002508BC070318BD0A2608BD0734
:10062C000130A5002508A007E42ABC01BD01301645
:10063C00212B30153B2B0130A007FF302007840005
:10064C000A128A150A200A128A11C200A500A601F4
:10065C002608003A0319332BBB2A2508003A031944
:10066C00E72F663A03191F2BBB2A00302F05A50074
:10067C0007303005A600250826040319AF2F301EBD
:10068C004B2B0630BC000030BD002E0884008313B9
:10069C000008BE00840A0008BF00840A0008C000DD
:1006AC00840A0008C1000430A5002508AE074108E3
:1006BC00F3004008F2003F08F1003E08F000003063
:1006CC00F7000030F6000030F5000030F4000A1698
:1006DC008A156D270A128A1103188D2B4108F30015
:1006EC004008F2003F08F1003E08F0000A168A1597
:1006FC001D230A128A117308C1007208C000710808
:10070C00BF007008BE000330AF040030B004B50168
:10071C00B6014108F3004008F2003F08F1003E0822
:10072C00F0000030F7000030F6000030F50000302B
:10073C00F4000A168A1528250A128A110318632C4C
:10074C000310400D410D823EB500FF300318003000
:10075C00B600FF30B5070318B60AFF30B6070330F2
:10076C00F0000030F1003608F3003508F2000A16EC
:10077C008A15C5230A128A117108B6007008B500D3
:10078C000A30F7000030F8003608FA003508F90096
:10079C000A168A1551260A128A1178088316B60091
:1007AC007708B500B61FE02BFF30B5070318B60A63
:1007BC00FF30B6073503FF3A0A128A1594210A1244
:1007CC008A1141088316BA00831240088316B900B7
:1007DC0083123F088316B80083123E088316B700B5
:1007EC0041088312A700831640088312A6008316C3
:1007FC003F088312A50083163E088312A4008316BB
:10080C003A088312AB00831639088312AA008316A8
:10081C0038088312A900831637088312A8000A1619
:10082C008A110B250A128A1127088316BA00831223
:10083C0026088316B900831225088316B800831284
:10084C0024088316B7003A08F3003908F200380878
:10085C00F1003708F0003F30F7008030F600003030
:10086C00F5000030F4000A168A156D270A128A1159
:10087C000318462CFF30B5070318B60AFF30622C5C
:10088C003A08F3003908F2003808F1003708F00094
:10089C004130F7002030F6000030F5000030F40055
:1008AC000A168A156D270A128A11031C632C013053
:1008BC00B5070318B60A0030B6073D08803AFF00AA
:1008CC0080307F02031D6C2C0D303C020318A22CCF
:1008DC00831603133C080A168A1148230A128A113C
:1008EC004108D5004008D4003F08D3003E08D20090
:1008FC00831641088312D900831640088312D8004E
:10090C0083163F088312D70083163E088312D60045
:10091C000A128A1189200A128A1155088316C100FD
:10092C00831254088316C000831253088316BF0029
:10093C00831252088316BE00831603133608803ABE
:10094C00FF0080307F02031DAD2C0A3035020318E6
:10095C00EE2C831603134108F3004008F2003F0805
:10096C00F1003E08F0000030F7000030F6000030D7
:10097C00F5000030F4000A168A1528250A128A118F
:10098C0003184B2D41088312D400831640088312A0
:10099C00D30083163F088312D20083163E088312BD
:1009AC00D1000A128A111E200A128A11540853040B
:1009BC0052045104031D4B2D83163608803AFF0058
:1009CC0080307F02031DEC2C02303502031C4B2DB2
:1009DC00831603133A08F3003908F2003808F100C3
:1009EC003708F0004030F7008930F6007030F50021
:1009FC005F30F4000A168A156D270A128A11031843
:100A0C00092DF7300A2DF830B5070318B60AFF3058
:100A1C00B60735080A128A1594210A128A11410860
:100A2C008316BA00831240088316B90083123F085C
:100A3C008316B80083123E088316B7004108F300F2
:100A4C004008F2003F08F1003E08F0003A08F700B9
:100A5C003908F6003808F5003708F4000A168A1130
:100A6C00FE200A128A1173088316B4007208B300B0
:100A7C007108B2007008B1000030C1000030C00035
:100A8C000030BF000030BE00AD2D831603134108AB
:100A9C008312D400831640088312D30083163F08B8
:100AAC008312D20083163E088312D1000A128A11D7
:100ABC001E200A128A1154088316B400831253089C
:100ACC008316B300831252088316B20083125108A6
:100ADC008316B1003408F3003308F2003208F10039
:100AEC003108F00000300A168A115B200A128A11B4
:100AFC0073088312E9007208E8007108E7007008B7
:100B0C00E600831641088312ED0083164008831219
:100B1C00EC0083163F088312EB0083163E08831209
:100B2C00EA000A168A1587230A128A1169088316A5
:100B3C00C100831268088316C000831267088316ED
:100B4C00BF00831266088316BE00B501B601C20150
:100B5C00C20A4208A50001300310A50DFF3E031D7B
:100B6C00B22D0310250D693E84000A128A150A2045
:100B7C000A128A11A6000A128A150A200A128A1170
:100B8C00A7000A128A150A200A128A11A8000A1252
:100B9C008A150A200A128A11A90029083402031D99
:100BAC00E12D28083302031DE12D27083202031D15
:100BBC00E12D26083102031CEB2D0130A500250880
:100BCC00C2070A304206031DAF2D2F080339031943
:100BDC00FA2D2D30A5003B088400250883138000D6
:100BEC000130A5002508BB070130C202420A0319D7
:100BFC006B2E4208A50001300310A50DFF3E031D0E
:100C0C00022E0310250D693E84000A128A150A2053
:100C1C000A128A11F0000A128A150A200A128A1185
:100C2C00F1000A128A150A200A128A11F2000A121D
:100C3C008A150A200A128A11F3003408F7003308C7
:100C4C00F6003208F5003108F4000A168A15AB26B6
:100C5C000A128A117308BA007208B9007108B80038
:100C6C007008B7000030F3000030F2000030F100E3
:100C7C000A30F0003A08F7003908F6003808F50099
:100C8C003708F4000A168A1505260A128A11730809
:100C9C00BA007208B9007108B8007008B7003708BC
:100CAC00303EF02D303083160313A5003B08840032
:100CBC002508831380000130A5002508BB07FF30F1
:100CCC00B5070318B60AFF30B6073608803AFF009E
:100CDC0080307F02031D742E013035020318582E0C
:100CEC00831603133D08803AFF0080307F02031DFA
:100CFC00812E09303C02031C872E08308316031307
:100D0C008A2E831603133C08A5002508C20042084E
:100D1C00A500A6012508BC022608031CBD03BD02C4
:100D2C0042080319A42E2E30A5003B088400250888
:100D3C00831380000130A5002508BB0742080A1266
:100D4C008A1594210A128A1141088316AD00831268
:100D5C0040088316AC0083123F088316AB00831245
:100D6C003E088316AA002D088312AB0083162C08AC
:100D7C008312AA0083162B088312A90083162A0853
:100D8C008312A800831641088312A700831640081B
:100D9C008312A60083163F088312A50083163E0813
:100DAC008312A4000A168A110B250A128A1127082D
:100DBC00D4002608D3002508D2002408D1000A123A
:100DCC008A111E200A128A1154088316B400831249
:100DDC0053088316B300831252088316B200831291
:100DEC0051088316B1000130C202420A0319AA2F1E
:100DFC004208A50001300310A50DFF3E031D012F75
:100E0C000310250D693E84000A128A150A200A1265
:100E1C008A11F0000A128A150A200A128A11F100AE
:100E2C000A128A150A200A128A11F2000A128A156D
:100E3C000A200A128A11F3003408F7003308F6006E
:100E4C003208F5003108F4000A168A15AB260A128E
:100E5C008A117308BA007208B9007108B8007008DA
:100E6C00B7000030F3000030F2000030F1000A301F
:100E7C00F0003A08F7003908F6003808F500370892
:100E8C00F4000A168A1505260A128A117308BA008C
:100E9C007208B9007108B8007008B7003708303E06
:100EAC00A5003B0884002508831380000130A500B1
:100EBC002508BB074208A50001300310A50DFF3E15
:100ECC00031D632F0310250D693E84000A128A1539
:100EDC000A200A128A11F0000A128A150A200A1234
:100EEC008A11F1000A128A150A200A128A11F200DC
:100EFC000A128A150A200A128A11F3003408F70024
:100F0C003308F6003208F5003108F4000A168A1589
:100F1C0005260A128A117308B4007208B30071080E
:100F2C00B2007008F82E3030A5003B08840025086C
:100F3C00831380000130A5002508BB07FF30BC07D8
:100F4C000318BD0AFF30BD073C083D040319BB2A3A
:100F5C00992F3C083D04031DBF2F34083304320481
:100F6C003104031DBF2F0130BC070318BD0A00302C
:100F7C00BD073D08803A803C031DC62F3C08420249
:100F8C00031CD52F831603133D08803AA50080302F
:100F9C002502031DD32F42083C02031CD52F8316B8
:100FAC0003132F0803390319BB2A2D30A5003B0866
:100FBC0084002508831380000130A5002508BB0799
:100FCC00BB2A3B088400831380010800831603139B
:100FDC00E201E301E401E501E601E701E801E901D1
:100FEC00EA01EB01EC01ED01EE01EF0183010A12C4
:100FFC008A15BC2CFF1B0A2883137F188317000843
:10100C00840A0319FF0A080008308A000408840ABD
:10101C00820700340034003480343F340034003410
:10102C002034413400340034C834423400340034A9
:10103C007A344434003440341C3446340034503454
:10104C00C3344734003424347434493480349634F3
:10105C0018344B342034BC34BE344C3428346B3408
:10106C006E344E34F934023415345034EC34783454
:10107C00AD346034CA34F234493471340034003441
:10108C0080343F34CD34CC34CC343D340A34D73472
:10109C0023343C346F34123483343A341734B73439
:1010AC00D1343834AC34C53427343734BD343734C8
:1010BC00863435349534BF34D63433347734CC3429
:1010CC002B3432345F34703489343034FF34E634AA
:1010DC00DB342E340834E5343C341E346034423472
:1010EC00A2340D3401340034003400340A3400349A
:1010FC00003400346434003400340034E8340334F5
:10110C00003400341034273400340034A0348634D6
:10111C0001340034403442340F340034803496347B
:10112C00983400340034E134F53405340034CA34D6
:10113C009A343B344C344D34333435343A340034F3
:10114C004E34543443343A34003450344F345434E1
:0E115C003A34003425342E34313466340034F5
:10117200700871040319E628F501F50AF11BCD2860
:1011820001300310F00DF10DFF3E031DC2280130A6
:10119200F4007408F507BF2871087302031DD328F1
:1011A20070087202031CDB287008F2027108031C2B
:1011B200F303F30201300310F10CF00CFF3E031DA8
:1011C200DC280130F502031DCD287308F1007208F6
:1011D200F00008007008F8007108F9007208FA00BF
:1011E2000310790D7A0DFB007B0883120313A5000F
:1011F2002508031D05290030F3000030F2000030FD
:10120200F1000030F00008007408F8007508F900D9
:101212007608FA000310790D7A0DFB007B08A40012
:1012220024080319FC28F117FF30F005FF30F105FF
:101232000030F205F517FF30F405FF30F5050030F8
:10124200F6050030A3000030A2000030A1000030FB
:10125200A0007F30A50298302407F8007808A50284
:101262001830F8007808A4000130F8000310A00D2F
:10127200A10DA20DA30DF80B372976087202031DEA
:10128200482975087102031D482974087002031C5D
:1012920055297408F0027508031C750FF1027608CF
:1012A200031C760AF202201401300310F00DF10D36
:1012B200F20DFF3E031D56290130A402031D3529FC
:1012C200A51F78292508803A973E031CFC28013087
:1012D2000310A30CA20CA10CA00CFF3E031D692954
:1012E2000130F8007808A50703198B2968291830FE
:1012F20025020318FC28250803198B290130F80060
:101302000310A00DA10DA20DA30DF80B8129013030
:10131200A5027C292308F3002208F2002108F1002B
:101322002008F00008008312D000D01F2B2BD00918
:10133200D00A5008803A123E031C7B2A0A30F7007A
:101342000030F8005008F200F301F21BF30364309E
:10135200F0000030F1000A168A15BA250A128A1521
:101362007108FA007008F9000A168A1551260A1245
:101372008A157708C20001300310C20DFF3E031D1B
:10138200BD290310420D593E84000A128A150A2013
:101392000A128A15C3000A128A150A200A128A152D
:1013A200C4000A128A150A200A128A15C5000A12F6
:1013B2008A150A200A128A15C6004608A70045089F
:1013C200A6004408A5004308A4006430F7000030DA
:1013D200F8005008F900FA01F91BFA030A168A15F7
:1013E20051260A128A157708C70001300310C70D6B
:1013F200FF3E031DF7290310470D7D3E84000A12AC
:101402008A150A200A128A15C8000A128A150A20A9
:101412000A128A15C9000A128A150A200A128A15A6
:10142200CA000A128A150A200A128A15CB004B0832
:10143200AB004A08AA004908A9004808A8000A16F1
:101442008A110B250A128A152708CF002608CE001A
:101452002508CD002408CC000A30F0000030F1004D
:101462005008F200F301F21BF3030A168A15BA259B
:101472000A128A157008C20001300310C20DFF3E25
:10148200031D3E2A0310420D353E84000A128A15BE
:101492000A200A128A15C3000A128A150A200A12A1
:1014A2008A15C4000A128A150A200A128A15C50072
:1014B2000A128A150A200A128A15C6004608A700CF
:1014C2004508A6004408A5004308A4004F08AB0045
:1014D2004E08AA004D08A9004C08A8000A168A1155
:1014E2000B252708C1002608C0002508BF002408D4
:1014F200BE0008005008803A753E031C002B0A30DB
:10150200F0000030F1005008F200F301F21BF30387
:101512000A168A15BA250A128A157008C200013005
:101522000310C20DFF3E031D912A0310420D353EEA
:1015320084000A128A150A200A128A15C3000A12A6
:101542008A150A200A128A15C4000A128A150A206C
:101552000A128A15C5000A128A150A200A128A1569
:10156200C6004608A7004508A6004408A50043088F
:10157200A4000A30F7000030F8005008F900FA0120
:10158200F91BFA030A168A1551260A128A157708D8
:10159200C70001300310C70DFF3E031DCB2A031005
:1015A200470D593E84000A128A150A200A128A152A
:1015B200C8000A128A150A200A128A15C9000A12DC
:1015C2008A150A200A128A15CA000A128A150A20E6
:1015D2000A128A15CB004B08AB004A08AA00490838
:1015E200A9004808A8000A168A110B252708C1007D
:1015F2002608C0002508BF002408BE0008005008C5
:10160200C20001300310C20DFF3E031D032B031065
:10161200420D353E84000A128A150A200A128A15E2
:10162200C3000A128A150A200A128A15C4000A1275
:101632008A150A200A128A15C5000A128A150A207A
:10164200C6004608C1004508C0004408BF00430860
:10165200BE0008005008803A123E031C0C2C0A30CF
:10166200F7000030F8005008F200F301F21BF30318
:101672006430F0000030F1000A168A15BA250A1209
:101682008A157108FA007008F9000A168A1551269F
:101692000A128A157708C20001300310C20DFF3EFC
:1016A200031D4E2B0310420D253E84000A128A159B
:1016B2000A200A128A15C3000A128A150A200A127F
:1016C2008A15C4000A128A150A200A128A15C50050
:1016D2000A128A150A200A128A15C6004608A700AD
:1016E2004508A6004408A5004308A4006430F7009A
:1016F2000030F8005008F900FA01F91BFA030A1643
:101702008A1551260A128A157708C700013003107C
:10171200C70DFF3E031D882B0310470D493E840071
:101722000A128A150A200A128A15C8000A128A1594
:101732000A200A128A15C9000A128A150A200A12F8
:101742008A15CA000A128A150A200A128A15CB00C3
:101752004B08AB004A08AA004908A9004808A8009B
:101762000A168A110B250A128A152708CF002608A5
:10177200CE002508CD002408CC000A30F00000304D
:10178200F1005008F200F301F21BF3030A168A1566
:10179200BA250A128A157008C20001300310C20D60
:1017A200FF3E031DCF2B0310420D013E84000A129F
:1017B2008A150A200A128A15C3000A128A150A20FB
:1017C2000A128A15C4000A128A150A200A128A15F8
:1017D200C5000A128A150A200A128A15C60046088E
:1017E200A7004508A6004408A5004308A4004F0826
:1017F200AB004E08AA004D08A9004C08A8000A1622
:101802008A110B252708C1002608C0002508BF0041
:101812002408BE0008005008803A753E031C912C33
:101822000A30F0000030F1005008F200F301F21B20
:10183200F3030A168A15BA250A128A157008C2001D
:1018420001300310C20DFF3E031D222C0310420D76
:10185200013E84000A128A150A200A128A15C30060
:101862000A128A150A200A128A15C4000A128A1557
:101872000A200A128A15C5000A128A150A200A12BB
:101882008A15C6004608A7004508A6004408A50018
:101892004308A4000A30F7000030F8005008F900AD
:1018A200FA01F91BFA030A168A1551260A128A1539
:1018B2007708C70001300310C70DFF3E031D5C2CE3
:1018C2000310470D253E84000A128A150A200A12C7
:1018D2008A15C8000A128A150A200A128A15C90036
:1018E2000A128A150A200A128A15CA000A128A15D1
:1018F2000A200A128A15CB004B08AB004A08AA003C
:101902004908A9004808A8000A168A110B252708C9
:10191200C1002608C0002508BF002408BE00080038
:101922005008C20001300310C20DFF3E031D942C6B
:101932000310420D013E84000A128A150A200A127F
:101942008A15C3000A128A150A200A128A15C400CF
:101952000A128A150A200A128A15C5000A128A1565
:101962000A20C6004608C1004508C0004408BF005E
:101972004308BE0008000A168A1517230A128A15A0
:10198200FF30850088018601870183128801860164
:1019920087010A168A1100200A128A150A168A1568
:1019A20026230A128A1500300A168A157E240A1284
:1019B2008A1571088316E7007008E6004430831226
:1019C200C1007F30C000C030BF000030BE004030D8
:1019D200A700A030A6000030A5000030A4008316A6
:1019E2006608F0006708F1000030F11BFF30F200DA
:1019F200F30001300A168A115B200A128A15730855
:101A02008312AB007208AA007108A9007008A8002E
:101A12000A168A110B250A128A152708C5002608FC
:101A2200C4002508C3002408C2000A168A11A7218F
:101A32000A128A1541088316EF00831240088316A2
:101A4200EE0083123F088316ED0083123E088316D0
:101A5200EC006F08EB006E08EA006D08E9006C0804
:101A6200E80043308312A700DC30A6005930A500FD
:101A72009A30A40083166B088312AB0083166A089F
:101A82008312AA00831669088312A90083166808C4
:101A92008312A8000A168A110B250A128A15270832
:101AA2008316D100831226088316D00083122508DC
:101AB2008316CF00831224088316CE006B0883128C
:101AC200A70083166A088312A60083166908831288
:101AD200A500831668088312A40083166B0883127C
:101AE200AB0083166A088312AA0083166908831260
:101AF200A900831668088312A8000A168A110B250A
:101B02000A128A1527088316D5008312260883161F
:101B1200D400831225088316D30083122408831667
:101B2200D2006B088312A70083166A088312A600EC
:101B3200831669088312A500831668088312A4001D
:101B4200831655088312AB00831654088312AA0029
:101B5200831653088312A900831652088312A80021
:101B62000A168A110B250A128A1527088316D9002C
:101B7200831226088316D800831225088316D700FD
:101B8200831224088316D6006B088312A7008316DB
:101B92006A088312A600831669088312A5008316B9
:101BA20068088312A400831651088312AB008316BF
:101BB20050088312AA0083164F088312A9008316C5
:101BC2004E088312A8000A168A110B250A128A15DA
:101BD2002708D5002608D4002508D3002408D200FF
:101BE200C230A7000E30A600CC30A500CD30A40034
:101BF200831659088312AB00831658088312AA0071
:101C0200831657088312A900831656088312A80068
:101C12000A168A110B250A128A152708D9002608E6
:101C2200D8002508D7002408D6000A128A11892074
:101C32000A128A1555088316DD008312540883168A
:101C4200DC00831253088316DB00831252088316CA
:101C5200DA0044308312A700E730A6004030A50026
:101C62000030A40083166B088312AB0083166A0847
:101C72008312AA00831669088312A90083166808D2
:101C82008312A8000A168A110B250A128A15270840
:101C9200E9002608E8002508E7002408E600831684
:101CA2005D088312ED0083165C088312EC00831634
:101CB2005B088312EB0083165A088312EA000A16A5
:101CC2008A1587230A128A1569088316E10083128E
:101CD20068088316E000831267088316DF00831208
:101CE20066088316DE0045308312D5002730D40003
:101CF200E030D3000030D200831661088312D9008D
:101D0200831660088312D80083165F088312D700F7
:101D120083165E088312D6000A128A1189200A12DB
:101D22008A1555088316EB00831254088316EA00BD
:101D3200831253088316E900831252088316E800BF
:101D4200F401F40A01300A168A1570250A128A155E
:101D52009730F5008030F6000A168A15EB240A1235
:101D62008A1583166B08C6006A08C5006908C40094
:101D72006808C3000A168A156B230A128A150130F5
:101D82000A168A157E240A128A1571088316E5003E
:101D92007008E40044308312C1007F30C000C030BC
:101DA200BF000030BE004030A700A030A6000030C7
:101DB200A5000030A40083166408F0006508F10055
:101DC2000030F11BFF30F200F30001300A168A11D5
:101DD2005B200A128A1573088312AB007208AA00EC
:101DE2007108A9007008A8000A168A110B250A12A8
:101DF2008A152708C5002608C4002508C300240840
:101E0200C2000A168A11A7210A128A1541088316EE
:101E1200EF00831240088316EE0083123F088316F8
:101E2200ED0083123E088316EC0041308312D50088
:101E3200A030D4000030D3000030D2004030A700E0
:101E4200C030A6000030A5000030A40083166F0841
:101E52008312AB0083166E088312AA0083166D08E4
:101E62008312A90083166C088312A8000A168A112D
:101E72000B250A128A152708D9002608D80025083A
:101E8200D7002408D6000A128A1189200A128A155C
:101E920055088316EF00831254088316EE0083124E
:101EA20053088316ED00831252088316EC000A30A1
:101EB2008312EF006F08F40001300A168A157025AC
:101EC2000A128A159130F5008030F6000A168A153A
:101ED200EB240A128A1583166F088312D400831624
:101EE2006E088312D30083166D088312D200831604
:101EF2006C088312D1000A128A111E200A128A1556
:101F02005208DD005108DC000A168A1555230A1210
:101F12008A1502300A168A157E240A128A15710859
:101F22008316E3007008E20044308312C1007F3060
:101F3200C000C030BF000030BE004030A700A0305B
:101F4200A6000030A5000030A40083166208F0004D
:101F52006308F1000030F11BFF30F200F3000130A2
:101F62000A168A115B200A128A1573088312AB00C3
:101F72007208AA007108A9007008A8000A168A113E
:101F82000B250A128A152708C5002608C400250851
:101F9200C3002408C2000A168A11A7210A128A1550
:101FA20041088316EF00831240088316EE00831265
:101FB2003F088316ED0083123E088316EC00F401FD
:101FC200F40A02300A168A1570250A128A159C3004
:101FD200F5008030F6000A168A15EB240A128A15DB
:101FE20083166F08C6006E08C5006D08C4006C0831
:101FF200C3000A168A156B230A128A15D42C0030E4
:102002000A168A153F230A168A111A30F500F8308B
:10201200F400F40B0A28F50B0A28000003300A1218
:102022008A1106200A168A110730F5007D30F40065
:10203200F40B1928F50B192803300A128A1106200D
:102042000A168A110F30F5004730F400F40B2728E6
:10205200F50B27282C2803300A128A1106200A16AB
:102062008A1102300A128A1106200A168A110230D7
:102072000A128A1106200A168A1108300A128A11D7
:1020820006200A168A1100300A128A1106200A1640
:102092008A110C300A128A1106200A168A1100309F
:1020A2000A128A1106200A168A1106300A128A11A9
:1020B20006200800F8007808031DF31F7028700935
:1020C200FA007109FB007209FC007309FD00FA0AAB
:1020D2000319FB0A0319FC0A0319FD0A782873087D
:1020E200FD007208FC007108FB007008FA0073081A
:1020F200720471047004031D87280030F30000305D
:10210200F2000030F1000030F00008009630F400D8
:102112007408F900FE307D050319B8280130F40077
:102122007408F90701300310FD0CFC0CFB0CFA0CCF
:10213200FF3E031D94288B280130F4007408F90730
:102142000130FA07003003180130FB070030031892
:102152000130FC07003003180130FD070130031085
:10216200FD0CFC0CFB0CFA0CFF3E031DB028FF30EB
:102172007D050319CC289D2802307902031CCE2844
:102182000130F9020130F4000310FA0DFB0DFC0DD1
:10219200FD0DF40BC528FC1FBD287918D828FF3087
:1021A200FA05FF30FB057F30FC05FF30FD0503100B
:1021B200F90C7908F400F501F601F7011830031063
:1021C200F40DF50DF60DF70DFF3E031DE028740822
:1021D200FA047508FB047608FC047708FD04780805
:1021E200031DF31FF528FD177D08F3007C08F2009C
:1021F2007B08F1007A08F00008000310720D730DDD
:10220200F80078088312A5002508031D1129003063
:10221200F3000030F2000030F1000030F00008005E
:102222000310760D770DF8007808A400240803192E
:102232000829F217FF30F005FF30F105FF30F205F3
:102242000030F305F617FF30F405FF30F505FF30D7
:10225200F6050030F7050030A3000030A200003080
:10226200A1000030A0007F30A502A0302407F800B2
:102272007808A5022030F8007808A4000130F800A0
:102282000310A00DA10DA20DA30DF80B4129770893
:102292007302031D562976087202031D562975081A
:1022A2007102031D562974087002031C6729740801
:1022B200F0027508031C750FF1027608031C760FF5
:1022C200F2027708031C770FF30220140130F800A2
:1022D2000310F00DF10DF20DF30DF80B6929013029
:1022E200A402031D3F29A51F8B292508803A9F3E82
:1022F200031C082901300310A30CA20CA10CA00C92
:10230200FF3E031D7C290130F8007808A507031958
:102312009E297B2920302502031808292508031944
:102322009E290130F8000310A00DA10DA20DA30DEE
:10233200F80B94290130A5028F292308F300220803
:10234200F2002108F1002008F00008004508803959
:10235200C6004608CF004508C6004607C700470822
:10236200D600C41B561456080319C529560A031D64
:10237200C2290030C5000030C4000030C300003064
:10238200C200C417C501CD290030C5000030C40009
:102392000030C3000030C20041088039C600460840
:1023A200CF064108C6004607C7004708D700C01B32
:1023B200571457080319EB29570A031DE82900305F
:1023C200C1000030C0000030BF000030BE00C017A6
:1023D200C101F3290030C1000030C0000030BF004D
:1023E2000030BE00410840043F043E04031D122A8F
:1023F2000030C5000030C4000030C3000030C2000D
:102402008030C4047F30C5044F08C6004608C504A6
:102412004508C1004408C0004308BF004208BE008E
:1024220008005608031D1E2A0030C1000030C000FB
:102432000030BF000030BE0008005608C600C701C9
:102442004708C90057084602C800031CC9034808C8
:102452007F3ED00049080318013E003ED1004508E6
:10246200CE004408CD004308CC004208CB00003027
:10247200C5000030C4000030C3000030C20000308C
:10248200D5000030D4000030D3000030D200D70194
:102492001A3057020318912A570803196D2A01307E
:1024A200C6000310CB0DCC0DCD0DCE0DC60B522A9E
:1024B2000130C6000310C20DC30DC40DC50DC60BFD
:1024C2005B2AD51B42140130C6000310D20DD30D76
:1024D200D40DD50DC60B662A41084E02031D7B2A78
:1024E20040084D02031D7B2A3F084C02031D7B2A34
:1024F2003E084B02031C8C2A55173E08CB023F08AC
:10250200031C3F0FCC024008031C400FCD024108C0
:10251200031C410FCE020130C6004608D707492AE4
:102522004E084D044C044B04031D5214C41BB42A20
:102532000130C6000310C20DC30DC40DC50DC60B7C
:102542009B2AD51B42140130C6000310D20DD30DB5
:10255200D40DD50DC60BA62AFF30D0070318D10A19
:10256200FF30D107972AD701D51FCD2AFF30520558
:10257200C600FF305305C700FF305405C8007F3046
:102582005505C9004908480447044604031942187E
:10259200CB2ACD2AD701D70A57080319FF2A0130BF
:1025A200C207003003180130C3070030031801309E
:1025B200C407003003180130C507451CFF2A420832
:1025C200C6004308C7004408C8004508C9000130D6
:1025D200CA00490DC90CC80CC70CC60CCA0BEA2AA2
:1025E2004908C5004808C4004708C3004608C2009D
:1025F2000130D0070318D10A0030D1075108803AC0
:10260200FF0080307F02031D082BFF305002031CA5
:10261200182BFF3083120313D0000030D10000309A
:10262200C5000030C4000030C3000030C200831275
:1026320003135108803AFF0080307F02031D232BD1
:10264200013050020318322B83120313D001D1013F
:102652000030C5000030C4000030C3000030C200AA
:10266200CF01831203135008C6004608D600561C39
:102672003C2BC417402B7F30C6004608C4055608C1
:10268200C6000310460CC7004708C500052A83127E
:10269200D1006E305102031C342C3F30A7000030B1
:1026A200A6000030A5000030A4006430C200420839
:1026B200F70051080A168A15E6230A168A11C30082
:1026C20001300310C30DFF3E031D622B0310430DA7
:1026D2007D3E84000A128A150A200A168A11C40055
:1026E2000A128A150A200A168A11C5000A128A15C8
:1026F2000A200A168A11C6000A128A150A200A1628
:102702008A11C7004708AB004608AA004508A9007D
:102712004408A8000A168A110B250A168A112708EE
:10272200D0002608CF002508CE002408CD000A30AC
:10273200C2004208F7006430C3004308F0005108A9
:102742000A168A152A240A168A110A168A15E623F7
:102752000A168A11C40001300310C40DFF3E031D86
:10276200AD2B0310440D593E84000A128A150A202B
:102772000A168A11C5000A128A150A200A168A1137
:10278200C6000A128A150A200A168A11C7000A12FE
:102792008A150A200A168A11C8004808A7004708A5
:1027A200A6004608A5004508A4005008AB004F0843
:1027B200AA004E08A9004D08A8000A168A110B2586
:1027C2000A168A112708CC002608CB002508CA0061
:1027D2002408C9000A30C2004208F00051080A1653
:1027E2008A152A240A168A11C30001300310C30D68
:1027F200FF3E031DF72B0310430D353E84000A12E2
:102802008A150A200A168A11C4000A128A150A2099
:102812000A168A11C5000A128A150A200A168A1196
:10282200C6000A128A150A200A168A11C70047082A
:10283200A7004608A6004508A5004408A4004C08C5
:10284200AB004B08AA004A08A9004908A8000A16CA
:102852008A110B252708C1002608C0002508BF00E1
:102862002408BE0008000B305102031CCB2C3F3061
:10287200A7000030A6000030A5000030A4000A30F6
:10288200C2004208F70051080A168A15E6230A1602
:102892008A11C30001300310C30DFF3E031D4C2CEF
:1028A2000310430D593E84000A128A150A200A16A3
:1028B2008A11C4000A128A150A200A168A11C50052
:1028C2000A128A150A200A168A11C6000A128A15E5
:1028D2000A200A168A11C7004708AB004608AA0058
:1028E2004508A9004408A8000A168A110B250A16F1
:1028F2008A112708D0002608CF002508CE00240818
:10290200CD000A30C2004208F00051080A168A15AA
:102912002A240A168A11C30001300310C30DFF3E98
:10292200031D8E2C0310430D353E84000A128A15B6
:102932000A200A168A11C4000A128A150A200A16E7
:102942008A11C5000A128A150A200A168A11C600BF
:102952000A128A150A200A168A11C7004708A70018
:102962004608A6004508A5004408A4005008AB008C
:102972004F08AA004E08A9004D08A8000A168A119D
:102982000B252708C1002608C0002508BF0024081F
:10299200BE0008003F30A7000030A6000030A500AE
:1029A2000030A4005108C20001300310C20DFF3EE6
:1029B200031DD62C0310420D353E84000A128A15DF
:1029C2000A200A168A11C3000A128A150A200A1658
:1029D2008A11C4000A128A150A200A168A11C50031
:1029E2000A128A150A200A168A11C6004608AB0086
:1029F2004508AA004408A9004308A8000A168A113B
:102A02000B252708C1002608C0002508BF0024089E
:102A1200BE00080027088039AC002C08B100270846
:102A2200AC002C07AD002D08B700A61B37143708E1
:102A32000319282D370A031D262D0030A700003068
:102A4200A6000030A5000030A400A617302D0030EB
:102A5200A7000030A6000030A5000030A4002B081B
:102A62008039AC002C08B1062B08AC002C07AD0055
:102A72002D08B200AA1B3214320803194D2D320A56
:102A8200031D4B2D0030AB000030AA000030A9001E
:102A92000030A800AA17552D0030AB000030AA0064
:102AA2000030A9000030A8003208031D3708031DBA
:102AB200632D0030A7000030A6000030A5000030D2
:102AC200A40008002408AC002C08F0002A080A160A
:102AD2008A1507240A168A117108BD007008BC0005
:102AE2003C08AC00AD01AE01AF012F08B6002E08C4
:102AF200B5002D08B4002C08B3003D08AC00AD01B0
:102B0200AE01AF012F08BB002E08BA002D08B90094
:102B12002C08B8002508AC002C08F00029080A1679
:102B22008A1507240A168A117108BD007008BC00B4
:102B32003C08AC00AD01AE01AF012C08B3072D0873
:102B420003110318013E031DB4072E0803110318D5
:102B5200013E031DB5072F0803110318013E031D93
:102B6200B6073D08AC00AD01AE01AF012C08B807B5
:102B72002D0803110318013E031DB9072E08031186
:102B82000318013E031DBA072F0803110318013E63
:102B9200031DBB072608AC002C08F00028080A1603
:102BA2008A1507240A168A117108BD007008BC0034
:102BB2003C08AC00AD01AE01AF012C08B3072D08F3
:102BC20003110318013E031DB4072E080311031855
:102BD200013E031DB5072F0803110318013E031D13
:102BE200B6073D08AC00AD01AE01AF012C08B80735
:102BF2002D0803110318013E031DB9072E08031106
:102C02000318013E031DBA072F0803110318013EE2
:102C1200031DBB070830AC000310B30DB40DB50D96
:102C2200B60DAC0B0D2E2508AC002C08F0002808C0
:102C32000A168A1507240A168A117108BD0070083F
:102C4200BC003C08AC003D08AD00AE01AF012C0851
:102C5200B3072D0803110318013E031DB4072E0804
:102C620003110318013E031DB5072F0803110318B2
:102C7200013E031DB6072408AC002C08F000290809
:102C82000A168A1507240A168A117108BD007008EF
:102C9200BC003C08AC003D08AD00AE01AF012C0801
:102CA200B3072D0803110318013E031DB4072E08B4
:102CB20003110318013E031DB5072F080311031862
:102CC200013E031DB6070830AC000310B30DB40D6E
:102CD200B50DB60DAC0B662E2408AC002C08F00026
:102CE20028080A168A1507240A168A117108BD00D7
:102CF2007008BC003C08AC003D08AD00AE01AF015D
:102D02002C08B3072D0803110318013E031DB40755
:102D12002E0803110318013E031DB5072F080311E6
:102D22000318013E031DB6072508AC002C08F0006D
:102D32002A080A168A1507240A168A117108BD0084
:102D42007008BC003C08AC003D08AD00AE01AF010C
:102D52002C08B8072D0803110318013E031DB907FB
:102D62002E0803110318013E031DBA072F08031191
:102D72000318013E031DBB072608AC002C08F00017
:102D820029080A168A1507240A168A117108BD0035
:102D92007008BC003C08AC003D08AD00AE01AF01BC
:102DA2002C08B8072D0803110318013E031DB907AB
:102DB2002E0803110318013E031DBA072F08031141
:102DC2000318013E031DBB072608AC002C08F000C7
:102DD2002A080A168A1507240A168A117108BD00E4
:102DE2007008BC003C08AC003D08AD00AE01AF016C
:102DF20008300310AC0DAD0DAE0DAF0DFF3E031D3F
:102E0200FA2E2C08B8072D0803110318013E031DE2
:102E1200B9072E0803110318013E031DBA072F0834
:102E220003110318013E031DBB073608AC00AD01B8
:102E3200AE01AF012C08B8072D0803110318013E9B
:102E4200031DB9072E0803110318013E031DBA071B
:102E52002F0803110318013E031DBB070830AC0005
:102E62000310B30DB40DB50DB60DAC0B312F3708F1
:102E72003207AC00AD01AD0D2C08823EBC002D081E
:102E82000318013EFF3EBD00BA1B622F0130AC00A9
:102E92000310B80DB90DBA0DBB0DAC0B492FB61B03
:102EA20038140130AC000310B30DB40DB50DB60DDE
:102EB200AC0B542FFF30BC070318BD0AFF30BD070F
:102EC200452FB201B61F7B2FFF303305AC00FF3018
:102ED2003405AD00FF303505AE007F303605AF005A
:102EE2002F082E042D042C0403193818792F7B2F58
:102EF200B201B20A32080319AD2F0130B80700300F
:102F020003180130B907003003180130BA07003046
:102F120003180130BB073B1CAD2F3808AC00390841
:102F2200AD003A08AE003B08AF000130B0002F0DF3
:102F3200AF0CAE0CAD0CAC0CB00B982F2F08BB0035
:102F42002E08BA002D08B9002C08B8000130BC07C1
:102F52000318BD0A0030BD073D08803AFF008030EB
:102F62007F02031DB62FFF303C02031CC32F7F30AC
:102F720083120313BB008030BA000030B900003066
:102F8200B800F32F831203133D08803AFF0080300C
:102F92007F02031DCE2F01303C020318DC2F0030CC
:102FA20083120313BB000030BA000030B9000030B6
:102FB200B800B101F32F831203133C08AC002C08B4
:102FC200B700FF30B805FF30B9057F30BA050030D1
:102FD200BB053718BA173708AC0003102C0CAD002C
:102FE2002D08BB003108AC002C08BB043B08A7002D
:0E2FF2003A08A6003908A5003808A400080017
:10362E0081309F00803083169F000800730872045B
:10363E0071047004031908008030F306080000308E
:10364E000A128A1106200A168A1501300A128A11E8
:10365E0006200800F100F0013A30710203183D2BEC
:10366E0030307102031C3D2BF001F00A700C080083
:10367E00F000701C442B0816452B0812F01C492B29
:10368E0088164A2B8812701D4E2B08174F2B0813C5
:10369E00F01D532B88170800881308005D08A5003D
:1036AE005C08A4000A30A6000030A7005E300A169F
:1036BE008A15A5230A168A155E30F5000030F6002D
:1036CE000A168A15EB240800A1308312EE006E084C
:1036DE008316A0004608A4004508A3004408A200D3
:1036EE004308A100C7300A128A11B6220A168A159B
:1036FE00C730F5000030F6000A168A15EB240800D4
:10370E008030E9066D08D5006C08D4006B08D30034
:10371E006A08D2006908D9006808D8006708D7007F
:10372E006608D6000A128A1189205508E900540845
:10373E00E8005308E7005208E6000800A900A51F9C
:10374E00B82B2D30FD00290884007D0883138000DE
:10375E000130FD007D08A907A409A509A40A0319D3
:10376E00A50A2508F9002408F8002708FB002608FA
:10377E00FA0029080A168A1509270800F401F5012E
:10378E00701CCF2B7208F4070318F50A7308F5079F
:10379E0001300310F20DF30DFF3E031DD02B01304F
:1037AE000310F10CF00CFF3E031DD72B70087104B3
:1037BE00031DC72B7508F1007408F0000800F9000E
:1037CE00FB0177080319052CFA01FA0AF71BF62BF1
:1037DE000310F70D0130F8007808FA07ED2B0310EF
:1037EE00FB0D77087902031C002C7708F9027B1475
:1037FE000310F70C0130FA02031DF62B7B080800AC
:10380E00F800F401F5017008F200F3017208F600F9
:10381E007308F700781C192C7608F4070318F50ABC
:10382E007708F50701300310F60DF70DFF3E031D67
:10383E001A2C0310F80C7808031D112C7508F100D2
:10384E007408F0000800F4000830F1007108F5006B
:10385E00F6017408F10007300310F10CFF3E031D52
:10386E00332C7608F20072077104F3007308F60029
:10387E000310F40D70087602031C472C7008F60234
:10388E000130F502031D302C76080800F400740890
:10389E000F39F1007108F2007408F039F100710867
:1038AE00F30008157308F10004300310F10CFF3E0D
:1038BE00031D5C2C71080A168A153F230A168A15F9
:1038CE0088150D30F100F10B6A2C83120313881149
:1038DE0072080A168A153F230A168A1588150D30A6
:1038EE00F100F10B782C8312031388110800F600F7
:1038FE0004307602031C862CF001F1010800C5305D
:10390E00F20072089F057608F20002300310F20DE5
:10391E00FF3E031D8D2C0310720DF30073089F04E0
:10392E000430F300E430F200F20B9B2CF30B9B2CD3
:10393E000000831203131F151F19A32C1E08F50078
:10394E0083161E08F4007508F1007408F0000800D4
:10395E00F501F601700871040319E62CF701F70A58
:10396E00F11BC52C01300310F00DF10DFF3E031DB0
:10397E00BA2C0130F4007408F707B72C013003108D
:10398E00F50DF60DFF3E031DC62C71087302031DC7
:10399E00D22C70087202031CDB2C7008F202710824
:1039AE00031CF303F302751401300310F10CF00C39
:1039BE00FF3E031DDC2C0130F702031DC52C7608DB
:1039CE00F1007508F0000800FA01FB017A0875078E
:1039DE00F8007608F7000318F70AFA1BF7037708C2
:1039EE00F900790883120313FF00780884000A1285
:1039FE008A1500200A168A15003A031908007A085B
:103A0E007507F8007608F7000318F70AFA1BF70394
:103A1E007708F900790883120313FF0078088400F1
:103A2E000A128A1500200A168A150A168A154D24BE
:103A3E000A168A150130FA070318FB0A0030FB0735
:103A4E00ED2C00307005F80000307105F900803063
:103A5E007205FA007F307305FB007B087A04790447
:103A6E007804031D422D0030F3000030F2000030C8
:103A7E00F1000030F00000307405F80000307505DC
:103A8E00F90080307605FA007F307705FB007B0861
:103A9E007A0479047804031D5C2D0030F7000030A1
:103AAE00F6000030F5000030F40077087306031DB1
:103ABE006A2D76087206031D6A2D75087106031DA0
:103ACE006A2D7408700603196E2D03100800031476
:103ADE000800F7007703031D952D74087F3EF5004F
:103AEE007508FA007A08F50004300310F50CFF3E55
:103AFE00031D7C2D7508F6007608F8007A080F393C
:103B0E00F5007508F90078080A128A1106200A16BF
:103B1E008A1579080A128A110620080002307706E3
:103B2E00031D08007408BF3EF5007508FA007A08F8
:103B3E00F50004300310F50CFF3E031DA12D750892
:103B4E00F6007608F8007A080F39F5007508F900C6
:103B5E0078080A128A1106200A168A1579080A129E
:103B6E008A1106200800F601F31FC42DF209F3098D
:103B7E00F20A0319F30AF601F60AF11FCB2DF0092A
:103B8E00F109F00A0319F10A700871040319F82DEE
:103B9E00F501F50AF11BDF2D01300310F00DF10DCB
:103BAE00FF3E031DD42D0130F4007408F507D12D0E
:103BBE0071087302031DE52D70087202031CED2DB2
:103BCE007008F2027108031CF303F30201300310B4
:103BDE00F10CF00CFF3E031DEE2D0130F502031D1E
:103BEE00DF2D76080319002EF209F309F20A0319E4
:103BFE00F30A7308F1007208F000080073087204EB
:103C0E00710470040319482EF901F90AF31B1D2ED5
:103C1E000130F8000310F00DF10DF20DF30DF80B5D
:103C2E00112E0130F8007808F9070D2E730877026F
:103C3E00031D2B2E72087602031D2B2E71087502A2
:103C4E00031D2B2E70087402031C3B2E7008F40209
:103C5E007108031C710FF5027208031C720FF60235
:103C6E007308031C730FF70201300310F30CF20CF0
:103C7E00F10CF00CFF3E031D3C2E0130F902031D2A
:103C8E001D2E7708F3007608F2007508F10074080F
:103C9E00F00008008312A101F81F5C2EF709F80945
:103CAE00F70A0319F80AA101A10AFA1F672EF909EA
:103CBE00FA09F90A0319FA0A0130FB007B08A1067A
:103CCE00A201A3017708780403199E2EA001A00A71
:103CDE00F81B7D2E01300310F70DF80DFF3E031D6E
:103CEE00722E0130FB007B08A0076F2E01300310EF
:103CFE00A20DA30DFF3E031D7E2E78087A02031D32
:103D0E008A2E77087902031C932E7708F902780819
:103D1E00031CFA03FA02221401300310F80CF70CFC
:103D2E00FF3E031D942E0130A002031D7D2E21089F
:103D3E000319A62EA209A309A20A0319A30A23088E
:103D4E00F8002208F70008000030FC000030FB00ED
:103D5E000030FA000030F900730872047104700428
:103D6E000319002FFD01FD0AF31BCB2E0130F800C5
:103D7E000310F00DF10DF20DF30DF80BBF2E013007
:103D8E00F8007808FD07BB2E0130F8000310F90D7E
:103D9E00FA0DFB0DFC0DF80BCD2E73087702031DEB
:103DAE00E22E72087602031DE22E71087502031DC3
:103DBE00E22E70087402031CF32E7008F4027108D0
:103DCE00031C710FF5027208031C720FF6027308C2
:103DDE00031C730FF702791401300310F30CF20C6D
:103DEE00F10CF00CFF3E031DF42E0130FD02031DFD
:103DFE00CB2E7C08F3007B08F2007A08F1007908DC
:103E0E00F0000800A3007908A1007808A0007B0844
:103E1E00F1007A08F0002108F3002008F2000A16DB
:103E2E008A15AF240A168A157108A1007008A00021
:103E3E000130FC007C08A30720082104031D0E2F6F
:103E4E0023088400831380010130A3027B08F10054
:103E5E007A08F0007908F3007808F2000A128A1541
:103E6E00B9200A168A157008FC007C08A2007B088F
:103E7E00F1007A08F0007908F3007808F2000A16CB
:103E8E008A15AF240A168A157108F9007008F80011
:103E9E000A302202031C572F0730FC007C08A207B1
:103EAE003030FC007C08A2072208FC0023088400A6
:103EBE007C08831380000130A30278087904031D67
:103ECE002D2F0130FC007C08A30708000030700580
:103EDE00F80000307105F90080307205FA007F306D
:103EEE007305FB007B087A0479047804031D872F81
:103EFE000030F3000030F2000030F1000030F0002E
:103F0E0000307405F80000307505F9008030760534
:103F1E00FA007F307705FB007B087A047904780479
:103F2E00031DA12F0030F7000030F6000030F50021
:103F3E000030F400F31FC72F0030F8000030F900F6
:103F4E000030FA008030FB007008F8027108031C84
:103F5E00710FB22FB32FF9027208031C720FB82F14
:103F6E00B92FFA027308031C730FBE2FBF2FFB026B
:103F7E007B08F3007A08F2007908F1007808F00067
:103F8E00F71FED2F0030F8000030F9000030FA0076
:103F9E008030FB007408F8027508031C750FD82FCB
:103FAE00D92FF9027608031C760FDE2FDF2FFA02C7
:103FBE007708031C770FE42FE52FFB027B08F70031
:103FCE007A08F6007908F5007808F4008030F306D8
:103FDE008030F70677087302031D08007608720218
:103FEE00031D080075087102031D08007408700295
:023FFE000800B9
:02400E00393F38
:00000001FF
